{
  "contractName": "ContratoCurso",
  "abi": [
    {
      "inputs": [],
      "stateMutability": "nonpayable",
      "type": "constructor"
    },
    {
      "anonymous": false,
      "inputs": [
        {
          "indexed": true,
          "internalType": "address",
          "name": "winner",
          "type": "address"
        },
        {
          "indexed": false,
          "internalType": "uint256",
          "name": "premio",
          "type": "uint256"
        },
        {
          "indexed": false,
          "internalType": "string",
          "name": "name",
          "type": "string"
        },
        {
          "indexed": false,
          "internalType": "uint256",
          "name": "posicion",
          "type": "uint256"
        }
      ],
      "name": "ganadorEscogido",
      "type": "event"
    },
    {
      "anonymous": false,
      "inputs": [
        {
          "indexed": true,
          "internalType": "address",
          "name": "player",
          "type": "address"
        },
        {
          "indexed": false,
          "internalType": "string",
          "name": "name",
          "type": "string"
        }
      ],
      "name": "jugadorIngresado",
      "type": "event"
    },
    {
      "inputs": [],
      "name": "administrador",
      "outputs": [
        {
          "internalType": "address",
          "name": "",
          "type": "address"
        }
      ],
      "stateMutability": "view",
      "type": "function",
      "constant": true
    },
    {
      "inputs": [
        {
          "internalType": "uint256",
          "name": "",
          "type": "uint256"
        }
      ],
      "name": "jugadores",
      "outputs": [
        {
          "internalType": "address payable",
          "name": "direccionJugador",
          "type": "address"
        },
        {
          "internalType": "string",
          "name": "name",
          "type": "string"
        }
      ],
      "stateMutability": "view",
      "type": "function",
      "constant": true
    },
    {
      "inputs": [
        {
          "internalType": "string",
          "name": "nombreJugador",
          "type": "string"
        }
      ],
      "name": "ingresar",
      "outputs": [],
      "stateMutability": "payable",
      "type": "function",
      "payable": true
    },
    {
      "inputs": [],
      "name": "escogerGanador",
      "outputs": [],
      "stateMutability": "nonpayable",
      "type": "function"
    },
    {
      "inputs": [],
      "name": "obtenerJugadores",
      "outputs": [
        {
          "internalType": "address payable[]",
          "name": "",
          "type": "address[]"
        },
        {
          "internalType": "string[]",
          "name": "",
          "type": "string[]"
        }
      ],
      "stateMutability": "view",
      "type": "function",
      "constant": true
    },
    {
      "inputs": [],
      "name": "cantidadDeJugadores",
      "outputs": [
        {
          "internalType": "uint256",
          "name": "",
          "type": "uint256"
        }
      ],
      "stateMutability": "view",
      "type": "function",
      "constant": true
    },
    {
      "inputs": [],
      "name": "obtenerSaldoContrato",
      "outputs": [
        {
          "internalType": "uint256",
          "name": "",
          "type": "uint256"
        }
      ],
      "stateMutability": "view",
      "type": "function",
      "constant": true
    }
  ],
  "bytecode": "0x608060405234801561001057600080fd5b50336000806101000a81548173ffffffffffffffffffffffffffffffffffffffff021916908373ffffffffffffffffffffffffffffffffffffffff16021790555061163e806100606000396000f3fe6080604052600436106100705760003560e01c80637062b97d1161004e5780637062b97d1461010a5780637ce6fc8f14610135578063ad9632e314610151578063ddee0f4a1461016857610070565b806305b08ed91461007557806317f27c66146100a15780634aead46c146100cc575b600080fd5b34801561008157600080fd5b5061008a610193565b604051610098929190610bc9565b60405180910390f35b3480156100ad57600080fd5b506100b66103ce565b6040516100c39190610c19565b60405180910390f35b3480156100d857600080fd5b506100f360048036038101906100ee9190610c74565b6103d6565b604051610101929190610cfa565b60405180910390f35b34801561011657600080fd5b5061011f6104b2565b60405161012c9190610d4b565b60405180910390f35b61014f600480360381019061014a9190610e9b565b6104d6565b005b34801561015d57600080fd5b50610166610626565b005b34801561017457600080fd5b5061017d610866565b60405161018a9190610c19565b60405180910390f35b606080600060018054905067ffffffffffffffff8111156101b7576101b6610d70565b5b6040519080825280602002602001820160405280156101e55781602001602082028036833780820191505090505b509050600060018054905067ffffffffffffffff81111561020957610208610d70565b5b60405190808252806020026020018201604052801561023c57816020015b60608152602001906001900390816102275790505b50905060005b6001805490508110156103c1576001818154811061026357610262610ee4565b5b906000526020600020906002020160000160009054906101000a900473ffffffffffffffffffffffffffffffffffffffff168382815181106102a8576102a7610ee4565b5b602002602001019073ffffffffffffffffffffffffffffffffffffffff16908173ffffffffffffffffffffffffffffffffffffffff1681525050600181815481106102f6576102f5610ee4565b5b9060005260206000209060020201600101805461031290610f42565b80601f016020809104026020016040519081016040528092919081815260200182805461033e90610f42565b801561038b5780601f106103605761010080835404028352916020019161038b565b820191906000526020600020905b81548152906001019060200180831161036e57829003601f168201915b50505050508282815181106103a3576103a2610ee4565b5b602002602001018190525080806103b990610fa2565b915050610242565b5081819350935050509091565b600047905090565b600181815481106103e657600080fd5b90600052602060002090600202016000915090508060000160009054906101000a900473ffffffffffffffffffffffffffffffffffffffff169080600101805461042f90610f42565b80601f016020809104026020016040519081016040528092919081815260200182805461045b90610f42565b80156104a85780601f1061047d576101008083540402835291602001916104a8565b820191906000526020600020905b81548152906001019060200180831161048b57829003601f168201915b5050505050905082565b60008054906101000a900473ffffffffffffffffffffffffffffffffffffffff1681565b6601f438daa06000341015610520576040517f08c379a00000000000000000000000000000000000000000000000000000000081526004016105179061105c565b60405180910390fd5b600160405180604001604052803373ffffffffffffffffffffffffffffffffffffffff16815260200183815250908060018154018082558091505060019003906000526020600020906002020160009091909190915060008201518160000160006101000a81548173ffffffffffffffffffffffffffffffffffffffff021916908373ffffffffffffffffffffffffffffffffffffffff16021790555060208201518160010190816105d29190611228565b5050503373ffffffffffffffffffffffffffffffffffffffff167ff0961415c890870e6c8f41c3cefaaf8a55417d054b89f6dfb8a258222a99781c8260405161061b91906112fa565b60405180910390a250565b60008054906101000a900473ffffffffffffffffffffffffffffffffffffffff1673ffffffffffffffffffffffffffffffffffffffff163373ffffffffffffffffffffffffffffffffffffffff16146106b4576040517f08c379a00000000000000000000000000000000000000000000000000000000081526004016106ab9061138e565b60405180910390fd5b6000600180549050116106fc576040517f08c379a00000000000000000000000000000000000000000000000000000000081526004016106f390611420565b60405180910390fd5b6000610706610873565b905060004790506001828154811061072157610720610ee4565b5b906000526020600020906002020160000160009054906101000a900473ffffffffffffffffffffffffffffffffffffffff1673ffffffffffffffffffffffffffffffffffffffff166108fc829081150290604051600060405180830381858888f19350505050158015610798573d6000803e3d6000fd5b50600182815481106107ad576107ac610ee4565b5b906000526020600020906002020160000160009054906101000a900473ffffffffffffffffffffffffffffffffffffffff1673ffffffffffffffffffffffffffffffffffffffff167f23cb55cc365ce204bb8314d09b44cbedfd3d5b5730aae59ca0ccd24c072510e0826001858154811061082b5761082a610ee4565b5b90600052602060002090600202016001018560405161084c939291906114c4565b60405180910390a26001600061086291906108b8565b5050565b6000600180549050905090565b60006001805490504244336040516020016108909392919061156b565b6040516020818303038152906040528051906020012060001c6108b391906115d7565b905090565b50805460008255600202906000526020600020908101906108d991906108dc565b50565b5b8082111561092657600080820160006101000a81549073ffffffffffffffffffffffffffffffffffffffff021916905560018201600061091d919061092a565b506002016108dd565b5090565b50805461093690610f42565b6000825580601f106109485750610967565b601f016020900490600052602060002090810190610966919061096a565b5b50565b5b8082111561098357600081600090555060010161096b565b5090565b600081519050919050565b600082825260208201905092915050565b6000819050602082019050919050565b600073ffffffffffffffffffffffffffffffffffffffff82169050919050565b60006109de826109b3565b9050919050565b6109ee816109d3565b82525050565b6000610a0083836109e5565b60208301905092915050565b6000602082019050919050565b6000610a2482610987565b610a2e8185610992565b9350610a39836109a3565b8060005b83811015610a6a578151610a5188826109f4565b9750610a5c83610a0c565b925050600181019050610a3d565b5085935050505092915050565b600081519050919050565b600082825260208201905092915050565b6000819050602082019050919050565b600081519050919050565b600082825260208201905092915050565b60005b83811015610add578082015181840152602081019050610ac2565b60008484015250505050565b6000601f19601f8301169050919050565b6000610b0582610aa3565b610b0f8185610aae565b9350610b1f818560208601610abf565b610b2881610ae9565b840191505092915050565b6000610b3f8383610afa565b905092915050565b6000602082019050919050565b6000610b5f82610a77565b610b698185610a82565b935083602082028501610b7b85610a93565b8060005b85811015610bb75784840389528151610b988582610b33565b9450610ba383610b47565b925060208a01995050600181019050610b7f565b50829750879550505050505092915050565b60006040820190508181036000830152610be38185610a19565b90508181036020830152610bf78184610b54565b90509392505050565b6000819050919050565b610c1381610c00565b82525050565b6000602082019050610c2e6000830184610c0a565b92915050565b6000604051905090565b600080fd5b600080fd5b610c5181610c00565b8114610c5c57600080fd5b50565b600081359050610c6e81610c48565b92915050565b600060208284031215610c8a57610c89610c3e565b5b6000610c9884828501610c5f565b91505092915050565b610caa816109d3565b82525050565b600082825260208201905092915050565b6000610ccc82610aa3565b610cd68185610cb0565b9350610ce6818560208601610abf565b610cef81610ae9565b840191505092915050565b6000604082019050610d0f6000830185610ca1565b8181036020830152610d218184610cc1565b90509392505050565b6000610d35826109b3565b9050919050565b610d4581610d2a565b82525050565b6000602082019050610d606000830184610d3c565b92915050565b600080fd5b600080fd5b7f4e487b7100000000000000000000000000000000000000000000000000000000600052604160045260246000fd5b610da882610ae9565b810181811067ffffffffffffffff82111715610dc757610dc6610d70565b5b80604052505050565b6000610dda610c34565b9050610de68282610d9f565b919050565b600067ffffffffffffffff821115610e0657610e05610d70565b5b610e0f82610ae9565b9050602081019050919050565b82818337600083830152505050565b6000610e3e610e3984610deb565b610dd0565b905082815260208101848484011115610e5a57610e59610d6b565b5b610e65848285610e1c565b509392505050565b600082601f830112610e8257610e81610d66565b5b8135610e92848260208601610e2b565b91505092915050565b600060208284031215610eb157610eb0610c3e565b5b600082013567ffffffffffffffff811115610ecf57610ece610c43565b5b610edb84828501610e6d565b91505092915050565b7f4e487b7100000000000000000000000000000000000000000000000000000000600052603260045260246000fd5b7f4e487b7100000000000000000000000000000000000000000000000000000000600052602260045260246000fd5b60006002820490506001821680610f5a57607f821691505b602082108103610f6d57610f6c610f13565b5b50919050565b7f4e487b7100000000000000000000000000000000000000000000000000000000600052601160045260246000fd5b6000610fad82610c00565b91507fffffffffffffffffffffffffffffffffffffffffffffffffffffffffffffffff8203610fdf57610fde610f73565b5b600182019050919050565b7f536520726571756965726520756e612063616e746964616420646520302e303060008201527f30353520657468207061726120706172746963697061722e0000000000000000602082015250565b6000611046603883610cb0565b915061105182610fea565b604082019050919050565b6000602082019050818103600083015261107581611039565b9050919050565b60008190508160005260206000209050919050565b60006020601f8301049050919050565b600082821b905092915050565b6000600883026110de7fffffffffffffffffffffffffffffffffffffffffffffffffffffffffffffffff826110a1565b6110e886836110a1565b95508019841693508086168417925050509392505050565b6000819050919050565b600061112561112061111b84610c00565b611100565b610c00565b9050919050565b6000819050919050565b61113f8361110a565b61115361114b8261112c565b8484546110ae565b825550505050565b600090565b61116861115b565b611173818484611136565b505050565b5b818110156111975761118c600082611160565b600181019050611179565b5050565b601f8211156111dc576111ad8161107c565b6111b684611091565b810160208510156111c5578190505b6111d96111d185611091565b830182611178565b50505b505050565b600082821c905092915050565b60006111ff600019846008026111e1565b1980831691505092915050565b600061121883836111ee565b9150826002028217905092915050565b61123182610aa3565b67ffffffffffffffff81111561124a57611249610d70565b5b6112548254610f42565b61125f82828561119b565b600060209050601f8311600181146112925760008415611280578287015190505b61128a858261120c565b8655506112f2565b601f1984166112a08661107c565b60005b828110156112c8578489015182556001820191506020850194506020810190506112a3565b868310156112e557848901516112e1601f8916826111ee565b8355505b6001600288020188555050505b505050505050565b600060208201905081810360008301526113148184610cc1565b905092915050565b7f736f6c6f20656c2061646d696e6973747261646f7220707565646520656a656360008201527f7574617220657374612066756e63696f6e000000000000000000000000000000602082015250565b6000611378603183610cb0565b91506113838261131c565b604082019050919050565b600060208201905081810360008301526113a78161136b565b9050919050565b7f4e6f2068617920737566696369656e746573206a756761646f7265732070617260008201527f61206573636f67657220756e2067616e61646f72000000000000000000000000602082015250565b600061140a603483610cb0565b9150611415826113ae565b604082019050919050565b60006020820190508181036000830152611439816113fd565b9050919050565b6000815461144d81610f42565b6114578186610cb0565b945060018216600081146114725760018114611488576114bb565b60ff1983168652811515602002860193506114bb565b6114918561107c565b60005b838110156114b357815481890152600182019150602081019050611494565b808801955050505b50505092915050565b60006060820190506114d96000830186610c0a565b81810360208301526114eb8185611440565b90506114fa6040830184610c0a565b949350505050565b6000819050919050565b61151d61151882610c00565b611502565b82525050565b60008160601b9050919050565b600061153b82611523565b9050919050565b600061154d82611530565b9050919050565b61156561156082610d2a565b611542565b82525050565b6000611577828661150c565b602082019150611587828561150c565b6020820191506115978284611554565b601482019150819050949350505050565b7f4e487b7100000000000000000000000000000000000000000000000000000000600052601260045260246000fd5b60006115e282610c00565b91506115ed83610c00565b9250826115fd576115fc6115a8565b5b82820690509291505056fea2646970667358221220770aba302fa67ee9fe04a0e771a52cba3a704c108f19d85c99c44fe21130cd8064736f6c63430008130033",
  "immutableReferences": {},
  "source": "// SPDX-License-Identifier: GPL-3.0-or-later\npragma solidity ^0.8.19;\n\ncontract ContratoCurso {\n    \n    address public administrador; // crear direccin del administrador del contrato.\n\n    // EVENTOS\n    event jugadorIngresado(address indexed player, string name);\n    event ganadorEscogido(address indexed winner, uint256 premio, string name, uint posicion);\n\n    // Estructura o modelo del jugador\n    struct Jugador{\n        address payable direccionJugador; // payable: capaz de recibir eth.\n        string name; \n    }\n\n    Jugador[] public jugadores; // arreglo dinmico de los jugadores.direccionJugador\n\n\n    constructor(){\n        administrador = msg.sender; // creador del contrato va a ser administrador.\n    }\n\n\n    // Funcin para que el usuario compre un boleto de lotera\n    function ingresar(string memory nombreJugador) public payable{\n        require(msg.value >= 0.00055 ether, \"Se requiere una cantidad de 0.00055 eth para participar.\"); // condicin para poder usar esta funcin.\n        jugadores.push(Jugador(payable(msg.sender), nombreJugador)); // agregar el jugador al arreglo de jugadores.\n        emit jugadorIngresado(msg.sender, nombreJugador); // ejecutamos el evento.\n    }\n\n    // Funcin para elegir el ganador de la lotera\n    function escogerGanador() public restricted{\n        require(jugadores.length > 0, \"No hay suficientes jugadores para escoger un ganador\");\n        uint index = random(); // seleccionamos un indice aleatorio.\n\n        // Calcular el saldo total acumulado por los jugadores\n        uint premioTotal = address(this).balance;\n\n        jugadores[index].direccionJugador.transfer(premioTotal); // transfiere al ganador el dinero recaudado desde la direccin del contrato.\n        emit ganadorEscogido(jugadores[index].direccionJugador, premioTotal, jugadores[index].name, index); // ejecutamos el evento.\n        delete jugadores; // limpia el arreglo de los jugadores\n    }\n\n    // Funcin para obtener de forma aletaria el index\n    function random() private view returns (uint){\n        return uint(  keccak256(abi.encodePacked(block.timestamp, block.prevrandao, msg.sender)))  % jugadores.length;\n    }\n\n    // Permitir que solamente el administrador ejecutemos ciertas funciones\n    modifier restricted(){\n        require(msg.sender == administrador, \"solo el administrador puede ejecutar esta funcion\");\n        _; // cuerpo restante de la funcin a ejecutar que estaba condicionada.\n    }\n\n    // Funcin para ver a los jugadores\n    function obtenerJugadores() public view returns (address payable[] memory, string[] memory){\n        address payable[] memory direccionesJugadores = new address payable[](jugadores.length);\n        string[] memory nombreJugadores = new string[](jugadores.length);\n\n        for(uint i = 0; i < jugadores.length; i++){\n            direccionesJugadores[i] = jugadores[i].direccionJugador;\n            nombreJugadores[i] = jugadores[i].name;\n        }\n\n        return(direccionesJugadores, nombreJugadores);\n    }\n\n\n    // Funcin para obtener la longitud del arreglo jugadores\n    function cantidadDeJugadores() public view returns (uint) {\n        return jugadores.length;\n    }\n\n\n    function obtenerSaldoContrato() public view returns (uint256) {\n        return address(this).balance;\n    }\n}",
  "sourcePath": "/Users/eduardoarias/Desktop/contenido/escuela-desarrollo-web-y-blockchain/backend/blockchain/contratos/ContratoCurso.sol",
  "compiler": {
    "name": "solc",
    "version": "0.8.19+commit.7dd6d404.Emscripten.clang"
  },
  "schemaVersion": "3.4.16",
  "updatedAt": "2024-03-26T00:37:51.431Z",
  "networkType": "ethereum",
  "devdoc": {
    "kind": "dev",
    "methods": {},
    "version": 1
  },
  "userdoc": {
    "kind": "user",
    "methods": {},
    "version": 1
  }
}